:020000040800F2
:10000000C0360020CD020008134300080D39000857
:1000100011430008851E00082F5200080000000050
:100020000000000000000000000000003502000891
:100030001923000800000000790200083D4E000866
:10004000E7020008E7020008E7020008E7020008EC
:10005000E7020008E7020008E7020008E7020008DC
:10006000E7020008E7020008E7020008E7020008CC
:10007000E7020008E7020008E7020008E7020008BC
:10008000E7020008E7020008E7020008E7020008AC
:10009000E7020008E7020008E7020008E70200089C
:1000A000E7020008D14E0008E7020008E702000856
:1000B000E7020008E7020008E7020008E70200087C
:1000C000E7020008E7020008E7020008E70200086C
:1000D000E7020008E7020008E7020008E70200085C
:1000E000E7020008E7020008E702000800F002F853
:1000F00000F090F80AA090E8000C82448344AAF132
:100100000107DA4501D100F085F8AFF2090EBAE82F
:100110000F0013F0010F18BFFB1A43F0010318473B
:100120007C9700009C970000103A24BF78C878C1E3
:10013000FAD8520724BF30C830C144BF04680C60ED
:10014000704700000023002400250026103A28BF35
:1001500078C1FBD8520728BF30C148BF0B60704739
:100160006E2900F0F283702900F0DF81662908F023
:100170006286652908F05F86672908F05C86612938
:1001800008F05B8603681B0A28BF41F080016929DB
:1001900000F05081642900F04D81752900F04A81FA
:1001A0006F2900F0EE86782900F0AB81E92900F094
:1001B0008986E42900F08686F52900F08386EF29F8
:1001C00000F0EB86F82900F0AA810368DB0928BF5C
:1001D00041F08001632900F00A86732900F00F8640
:1001E000E32901F0FB80F32901F000810020704732
:1001F0001FB500F0DDFE04000020002107F09EFD89
:10020000401C60600020002107F082FDE0601FBDFF
:1002100010B510BD01F084F91146FFF7E9FF05F0B4
:100220004FF901F0ABF903B4FFF7F2FF03BC01F0A3
:10023000EFF90000224B19680868B0E8F00F80F36E
:100240000988BFF36F8F4FF0000080F311884EF0E4
:100250000D0E70470000000006480068006880F33B
:10026000088862B661B6BFF34F8FBFF36F8F00DFB0
:1002700000BF00BF08ED00E0EFF30980BFF36F8F10
:100280000F4B1A6820E9F00F106008B54FF05000CE
:1002900080F31188BFF34F8FBFF36F8F06F0A8FE76
:1002A0004FF0000080F31188BDE808401968086825
:1002B000B0E8F00F80F30988BFF36F8F704700BF7D
:1002C0001C000020EFF305807047000009488047BC
:1002D00009480047FEE7FEE7FEE7FEE7FEE7FEE728
:1002E000FEE7FEE7FEE7FEE704480549054A064B40
:1002F00070470000CF4E0008ED000008C03000201D
:10030000C0360020C0320020C03200201CB50C4690
:10031000064B7B4469460090204600F03EFD0446B3
:100320000020694600F04CFD20461CBDAB0A0000D1
:100330000FB41CB5084B06AA7B446946009005988B
:1003400000F02BFD04460020694600F039FD2046F0
:100350001CBC5DF814FB0000850A00000FB47CB5DE
:100360000C0009AA009001D02044401E084B7B4499
:1003700069460190089800F010FD05461CB1002068
:10038000694600F01DFD28467CBC5DF814FB0000AA
:10039000590A000070B5044685690068C10601D598
:1003A000302600E02026C00707D070BDD4E9012127
:1003B00030469047206A401C20626D1EF6D570BD05
:1003C00070B5044685690078C00707D170BDD4E9CF
:1003D000012120209047206A401C20626D1EF6D526
:1003E00070BD70B50C460546012A05D028788006F8
:1003F00000D5EA69002302E0012305E05B1C93427B
:1004000002D2E05C0028F9D1A869E618C01AA861F8
:10041000286A184428622846FFF7BCFF04E0D5E9A3
:10042000012114F8010B9047B442F8D32846FFF796
:10043000C7FF70BD2DE9F0410646002410687529FC
:10044000314616A510D000F015FA002802DA404215
:1004500013A507E031688A0701D512A502E0490714
:1004600004D511A5012401E000F00DFA00210A22B3
:1004700006F1240709E0B0FBF2FCB0FBF2F302FB4B
:100480001C00303078541846491C0028F3D123460C
:100490002A463046BDE8F04100F0FEB900000000F9
:1004A0002D0000002B00000020000000F0B40D46DD
:1004B0000188090502D5214C7C4402E01F4C7C4494
:1004C0000E34002100F1240608E002F00F071209A3
:1004D000E75D42EA03721B097754491C52EA03079D
:1004E000F3D102780023120704D5702D06D009B18C
:1004F000022311342246F0BC00F0CEB9012310349F
:10050000F8E770B504460D462146106800F0BBF9C7
:10051000024629462046BDE870400023C6E7D21DAA
:1005200022F00703D3E90023C0E70368126843F011
:10053000200303600823C3610023B7E7E8910000AC
:100540002DE9F05F894604464FF0000ADFF874B1E8
:10055000FB44C0F820A02046E1688847002874D0FA
:10056000252806D0D4E901219047206A401C20624A
:10057000F1E700265F462046E168884720280546C7
:1005800007DB312D05D2781910F8200C08B106438D
:10059000F1E7B00701D526F00406C4F81CA0002737
:1005A000C4F818A02A2D09D0284604F047FF38B314
:1005B00004EB8708303DC8F8185019E059F8041BBF
:1005C000204604EB87029161E1688847012F0546C8
:1005D00018D1E069002820DA26F020061DE0D8F8BE
:1005E000180000EB800005EB40003038C8F8180018
:1005F0002046E1688847054604F020FF0028EED138
:10060000012F0AD02E2D08D12046E16888477F1C93
:100610000546022F46F02006C4DBA069002803DA55
:10062000404246F00106A061F00701D026F0100616
:100630006C2D0BD0682D09D04C2D39D06A2D35D0BA
:10064000742D35D07A2D33D016E038E0E1682F468E
:1006500020468847B842054609D16C2F26D04FF472
:100660008060E168064320468847054604E06C2F19
:100670001AD04FF4807006430DB3A5F1410019283C
:1006800002D8203546F400664A46294620462660B0
:100690004E46FFF765FD80B101280BD0F61D26F010
:1006A000070000F1080956E74020E4E78020D8E77A
:1006B0000020D6E706F104094DE7284652E7206AF4
:1006C000BDE8F09F78910000032A40F2308010F0DE
:1006D000030C00F0158011F8013BBCF1020F6244DD
:1006E00098BF11F801CB00F8013B38BF11F8013B6E
:1006F000A2F1040298BF00F801CB38BF00F8013B1B
:1007000011F0030300F02580083AC0F0088051F88A
:10071000043B083A51F804CBA0E80810F5E7121D95
:100720005CBF51F8043B40F8043BAFF30080D207B4
:1007300024BF11F8013B11F801CB48BF11F8012B80
:1007400024BF00F8013B00F801CB48BF00F8012BA3
:10075000704710B5203AC0F00B80B1E81850203A2D
:10076000A0E81850B1E81850A0E81850BFF4F5AF51
:100770005FEA027C24BFB1E81850A0E8185044BFDB
:1007800018C918C0BDE810405FEA827C24BF51F848
:10079000043B40F8043B08BF7047D20728BF31F83C
:1007A000023B48BF11F8012B28BF20F8023B48BF8D
:1007B00000F8012B704702F0FF0343EA032242EAEC
:1007C000024200F002B84FF000020429C0F012808B
:1007D00010F0030C00F01B80CCF1040CBCF1020FF4
:1007E00018BF00F8012BA8BF20F8022BA1EB0C01C9
:1007F00000F00DB85FEAC17C24BF00F8012B00F8BF
:10080000012B48BF00F8012B70474FF0000200B5E4
:10081000134694469646203922BFA0E80C50A0E823
:100820000C50B1F12001BFF4F7AF090728BFA0E8D1
:100830000C5048BF0CC05DF804EB890028BF40F89D
:10084000042B08BF704748BF20F8022B11F0804FDF
:1008500018BF00F8012B704770477047704710B5FC
:1008600000F0AAFB006810BD10B5044600F0A4FB20
:10087000046010BD09684A0501D540B27047C9053A
:10088000FCD500B2704709684A0501D5C0B270476F
:10089000C905FCD580B270472DE9F0470D46994651
:1008A0009246044600F124080168880604D5E069F0
:1008B00021F01001216000E00120A84201DD471B6A
:1008C00000E00027A1697A1902EB0900081AA0616B
:1008D0002078C00602D42046FFF75CFD002608E021
:1008E000D4E901211AF806009047206A401C761CC2
:1008F00020624E45F4DB2078C0060AD52046FFF77B
:1009000049FD06E0D4E9012130209047206A401CCF
:100910002062381EA7F10107F4DC07E0D4E90121C9
:1009200018F805009047206A401C2062281EA5F197
:100930000105F3DC2046FFF743FD2078000602D5D1
:100940000220BDE8F0870120FBE711680268006A19
:10095000530501D508700AE0D30501D5088006E0EB
:10096000130603D5C217C1E9000200E008600120A8
:10097000704770472DE9FF4F0C461E464FF0FF377A
:100980008BB0D2E90001DDF860800A908A46C1F39D
:100990000A5505B93D46002108464FF00000BAF15E
:1009A000000F00F4400005DA00EB80004FF4400136
:1009B00001EA50004FEA9059B9F1010F00DDB94644
:1009C0000A9850EA4A000ED044F61050A5F2FF35BE
:1009D00045432F14B8F1000F1ED07542291E1EDDAD
:1009E000C9F100021CE0B8F1010F4FF0000001D086
:1009F000302103E0F24305E02154401CB042FBDB10
:100A000030460022002121540B99C1F80880C1E929
:100A100000200FB0BDE8F08FBD1B6D1CDEE74A461D
:100A200000DA694206A800F0E5FC06AB93E807008F
:100A300003AB83E8070050460A9900F0F0FD8DE80B
:100A40000700A0F500501F3800900398002D0ADD24
:100A500042F21F014A460844002303A90390684656
:100A600001F059F809E0A0F500504A461F3800236C
:100A700003A90390684601F063F88DE807000004BD
:100A8000000C03D04FF0FF30410800E01046B8F1F1
:100A9000000F03D00022009215461EE0751E05D4FB
:100AA00000F08EFA303262556D1EF9D5B346012240
:100AB000084302D000227F1C04E02078302801D1B6
:100AC00000227F1E002A099784D01DE0112D07DA2D
:100AD00000F076FA303262556D1C50EA0102F5D111
:100AE000084302D00098C8B10EE00021681E05E05E
:100AF000235C625C63542254401E491C8142F7DB34
:100B0000AB46A81B401E0990002004F80B000B9870
:100B1000099AC0F80880C0E9002B7AE711264FF047
:100B2000000857E72DE9F04F88460446D21D22F011
:100B3000070191B0D1E90001CDE90A0104F0E4FB1D
:100B400002460B98C00F01D02D2007E020688107D6
:100B500001D52B2002E0202101EAC000032A0990E0
:100B600001D0072A05DB03464146204600F0ECFB96
:100B70000BE12078800601D5E06900E00620B8F19D
:100B8000650F814606D0B8F1660F18D0B8F1670F2F
:100B900070D131E00020B9F1110F009001DB112379
:100BA00001E009F101030AAA01A90CA8FFF7E2FE7E
:100BB000DDE90C70002609F10105834647E00120BC
:100BC0004B4600904FF000470AAA01A90CA8FFF776
:100BD000D1FEDDE90DB00C995D46002610B909F192
:100BE00001000D18B9EB050003D4C0F1FF3609F17F
:100BF0000105A5EB09002BE0B9F1010F01DA4FF077
:100C000001090020B9F1110F0090484601DD1123C0
:100C100000E003460AAA01A90CA8FFF7ABFEDDE934
:100C20000C704D4600268346207800070AD4AB4559
:100C300000DA5D4601A8012D04DD411911F8011CFF
:100C4000302907D04F4502DA17F1040F04DA0120EA
:100C500082460FE06D1EEEE7002F02DCED1B3E44E6
:100C600003E0781CA84200DD7D1CB81B00F1010ADE
:100C70004FF000472078000703D4AA4501DB4FF06E
:100C8000FF3A0021B7F1004F0DF143088DF84310F2
:100C900024D002202B23002F01DA7F422D230A21AA
:100CA000021EA0F1010000DC5FB197FBF1FC97FB95
:100CB000F1F201FB1C7C17460CF1300C08F801CD59
:100CC000EEE7A8F1010003702188090501D545214F
:100CD00000E06521A0F1010800F8011C09980FA9A6
:100CE000A1EB0807FF1D00B10120411901EBEA70DB
:100CF000A1693844081A401EA0612078C00602D4B9
:100D00002046FFF747FB099828B1D4E90121904715
:100D1000206A401C20622078C00622D52046FFF7BA
:100D200039FB1EE0002E04DBB34502DD01A8805D27
:100D300000E03020D4E901219047206A401C206265
:100D4000761CAAF101005FEA000A0AD100F030F92E
:100D5000C0680168405CD4E901219047206A401CCA
:100D60002062281EA5F10105DCDC07E0D4E90121A1
:100D700018F8010B9047206A401C2062381EA7F12A
:100D80000107F3DC2046FFF71BFB032011B041E60F
:100D900001694A1C02610878704700B58FB0CDE93F
:100DA00001310021059105497944CDE9031011462F
:100DB0006846FFF7C5FB0FB000BD0000E5FFFFFF71
:100DC0000A6802F8010B0A607047D1E900239A42D1
:100DD00002D2531C0B601070704710B5436913B1F9
:100DE000AFF3008001E0FFF7FCFA012010BD12789C
:100DF00000F124010A7000224A700122EDE7116817
:100E00004FF0FF32E9E700002DE9FF5F15468A4603
:100E10000446DFF8AC80F8440027D8E900103E46CD
:100E2000CDE9001010E03AF816106A4602A800F06A
:100E300053FB411C07D02178890603D5E269391894
:100E400091420DD80744761C2078800602D5E069CF
:100E5000B84205DDAE42E6DB3AF816000028E2D1E2
:100E6000A069C01BA0612046FFF794FAD8E90010E2
:100E7000CDE90010002017E03AF818106A4602A8E1
:100E800000F02AFBB0F1FF3F81460BD000250DF1A9
:100E9000080B05E0D4E901211BF8050090476D1C03
:100EA0004D45F7D308F10100B0428046E4DB206AEB
:100EB000384420622046FFF783FABDE8FF9F000018
:100EC0004E8900002DE9F0418046D21D22F0070234
:100ED0000025D2E90002F52915A614D0011E72F1F1
:100EE000000106DA0023D0EB030063EB020211A637
:100EF00008E0D8F800108B0701D50FA602E04907DB
:100F000001D50EA601251146002408F1240704E0AE
:100F100000F056F830323A55641C50EA0102F7D11D
:100F20002B46324621464046BDE8F041FFF7B4BCAF
:100F3000000000002D0000002B0000002000000039
:100F400030B4002100F1240408E002F00705D208C3
:100F5000303542EA4372DB086554491C52EA030506
:100F6000F3D10468002310A2250707D5A40600D4F6
:100F700021B1C46901230DA2641EC46130BCFFF716
:100F80008BBC10B5044621461068FFF77CFC024676
:100F90002046BDE810400023D2E7D21D22F0070111
:100FA000D1E90023CCE70000000000003000000081
:100FB000004870477C300020004870475C300020BB
:100FC00030B5B0F10A024FEA900E71F100034EEA1B
:100FD000817EB0EB0E0061EB91014FEA101E4EEAEC
:100FE000017E10EB0E0041EB11114FEA102E4EEA7C
:100FF000016E10EB0E0041EB11214FEA104E4EEA4C
:10100000014E10EB0E0041EB1141401841F100017F
:101010004FEAD00040EA41704FEAD10110EB800561
:101020004FEA810444EA907444EB01046D1944EBE7
:101030000404521BA3414FF0000348BF0A3200D5FD
:1010400030BD401C41F1000130BD00002DE9F04FE2
:1010500004460D46D21D22F0070089B0D0E9009762
:101060004846394604F050F90246F80F01D02D23C6
:1010700007E02068810701D52B2302E0202101EA47
:10108000C0038DF820300BB1012000E00020032ABE
:10109000824601D0072A04DB2946204600F054F995
:1010A0003FE12078800601D40D2500E0E569C7F313
:1010B0000A560D2D49DA00214FEA175B08464FF01A
:1010C0000000002F00F4400007DA00EB80004FF42E
:1010D000400100EBD07001EA60008115012901DDBB
:1010E0004FF0FF3100224FEA850CBCF1180F06D3F8
:1010F0001346ACF118004FF08052C24003E04FF4A9
:10110000801323FA0CF30CF10C0CBCF1200F04D368
:10111000ACF1200C09FA0CF001E007FA0CF0002900
:101120004FF0004801DD18B90FE00ED140450CD357
:1011300019EB02095F4121B9404502D19F4329EAD9
:101140000209BBEB175F00D0761C2088000502D592
:101150007B48784402E07A487844193808AA30235A
:1011600002F80A30037C0AF10101002E0AF1020A9A
:1011700053546A4602DC4FF0300101E04FF0310178
:101180004FF001088DF8001002D0A6F2FF3603E000
:1011900059EA470100D06B4E002D02DC2178090787
:1011A00004D54FF002082E218DF80110C44600210D
:1011B0000BE0C7F303433F01C35C491C6D1E02F8FB
:1011C0000830052908F1010801DA002DF1DC0021C1
:1011D0000CE000EB1973491C1B786D1E082902F8FE
:1011E00008304FEA091908F1010801DA002DF0DC96
:1011F00021688B0602D516E0A8F10108E04505DD5F
:1012000002EB080313F8013C302BF5D0B8F1000FC6
:1012100009DD02EB080313F8013C2E2B03D109076B
:1012200001D4A8F10108002D05DD3E2102F80810C7
:101230006D1E08F10108407C002E02F8080008F13C
:10124000010804DA2D20764202F8080002E02B2083
:1012500002F808000A214FF47A70864208F101086A
:101260000BDB96FBF0F3303302F8083096FBF0F31B
:1012700008F1010800FB136601E0642E0CDB64201A
:1012800096FBF0F3303302F8083096FBF0F308F1E8
:10129000010800FB136601E00A2E06DB96FBF1F065
:1012A000303002F8080008F1010896FBF1F001FB6C
:1012B0001060303002F80800A16908F1010808EB5D
:1012C000050202EB0A00081AA0612078C00602D4C9
:1012D0002046FFF75FF8216A08AE01EB0A002062A2
:1012E00004E0D4E9012116F8010B9047BAF1010A94
:1012F000F7D22078C00602D52046FFF74BF86E469D
:1013000009E016F8010B3E280FD0D4E901219047DF
:10131000206A401C2062B8F10108F2D22046FFF793
:101320004FF809B00320BDE8F08F206A28442062FE
:1013300003E0D4E90121302090476D1EEBD3F8E79C
:101340003586000002FCFFFF2DE9F0411F460446F0
:1013500003260168072A01F4006004DB08B116A522
:1013600005E016A503E008B115A500E015A521F0DC
:1013700010002060A069C01EA0610FB1401EA061D6
:101380002046FFF707F84FB1D4E9012138469047CE
:10139000206A401C2062C01C206206E0206AFAE736
:1013A000D4E9012115F8010B9047761EF8D22046AA
:1013B000FFF706F8BDE8F0814E414E006E616E0009
:1013C000494E4600696E660010B5436913B1AFF32C
:1013D000008001E0FFF718FD012010BD128800F128
:1013E000240182840022C2840122EDE711684FF0BB
:1013F000FF32E9E72DE9F047814616468AB03548C5
:1014000078440DC88DE80D0032487844801C03AC48
:101410000DC884E80D0041F69B300844372190FB4D
:10142000F1F290FBF1F5A5F1800501FB12041B3CE4
:1014300002D56442012000E00020DFF898A0804639
:101440000027FA44AAF1BE0A0EE0E0070AD03246AD
:10145000684607EB470101230AEB810100F070FBAE
:101460008DE8070064107F1C002CEED1194F7F44DB
:10147000AE3F19E0E80715D007EB04100DF1180A8C
:1014800090E80E008AE80E00C068F04201D1981979
:1014900008903246012306A903A800F051FB03ABD4
:1014A00083E807006D10641C002DE3D14FF00103A9
:1014B00032466946B8F1000F03A802D000F02BFBBA
:1014C00001E000F03DFBC9E90001C9F808200AB0BD
:1014D000BDE8F0871884000070B516460C46054636
:1014E00000F044F8036893F80101012806D0FF2CAE
:1014F0000FD8185D68B101202C7070BDD3F80701BA
:101500003246214603F2071303442846BDE87040E3
:1015100018474FF0FF3070BD004870475C30002026
:101520007546FFF7F9FFAE4605006946534620F0C1
:101530000700854618B020B5FEF7D6FEBDE820406E
:101540004FF000064FF000074FF000084FF0000B7F
:1015500021F00701AC46ACE8C009ACE8C009ACE832
:10156000C009ACE8C0098D467047000010B5FFF710
:101570001FFD001D10BD00BFC567000010B504466B
:10158000AFF300802046BDE81040FEF74CBE0000DF
:101590004FF0013C50F8042B51F8043B9A4221D102
:1015A000A2EB0C03934313EACC1317D150F8042B8E
:1015B00051F8043B9A4215D1A2EB0C03934313EA72
:1015C000CC130BD150F8042B51F8043B9A4209D1AB
:1015D000A2EB0C03934313EACC13DBD04FF00000D3
:1015E000704700BFD01A01BAB1FA81F101F01801B9
:1015F00022FA01F0CB40C1F12001DBB2C0B2C01A27
:101600002CFA01F3D11A914311EAC311E6D17047C4
:1016100001491820ABBEFEE72600020070475FEAD2
:10162000400C08BF91F0000F4FEA8C234FEAC12213
:1016300043EA51514FEA1C5018BF00F5F0404FEA01
:10164000300018BF41F000415FEA6C5C00F0298077
:10165000BCF1FF3F08BF40F080407047130C06BF4D
:1016600012044FF0100C4FF0000C130E04BF1202C6
:101670000CF1080C130F04BF12010CF1040C930FB2
:1016800004BF92000CF1020CD30F04BF52000CF106
:10169000010C11464FF00002A0F11F00A0EB0C005E
:1016A000704711F0004F08BF704731F000413FF420
:1016B000D5AF0B0C06BF09044FF0100C4FF0000C17
:1016C0000B0E04BF09020CF1080C0B0F04BF09013B
:1016D0000CF1040C8B0F04BF89000CF1020CCB0F32
:1016E00004BF49000CF1010CCCF12003A0EB0C006D
:1016F00022FA03F302FA0CF241EA030100F10100BD
:10170000704720F07F4C80EA030023F07F47ACEB6A
:10171000070303F57C5300F0004003F1FF032DE9BC
:1017200080494FEA154B09B44FEA144325EA0B4EA2
:1017300024EA03480FF2042606EB132749083E78F3
:101740005FEA320203FB0667C7F5000707FB06F6F0
:101750004FEA54374FEAD64606F1020607FB066CFD
:10176000CCF1005C4FEA1C472CEA074C07FB06F45F
:101770000CFB06F504EB15464FEA961634BF002025
:101780004FF000404FEAD13706FB07FC4FEA1C4CF4
:101790000CFB0BF7D21B03FB0CF761EB07010CFBF7
:1017A0000EF7B0EB074072EB17420CFB08F734BFA3
:1017B000A2EB0742B2EB074261EB17414FEA0C4440
:1017C0004FEA910706FB07FC4FEA1C4C0CFB0BF79A
:1017D000B0EBC74072EB573203FB0CF734BFA2EB00
:1017E000C742B2EBC74261EB57310CFB0EF7B0EBCF
:1017F000C70072EB57720CFB08F734BFA2EBC702AD
:10180000B2EBC70261EB5771039F4FEA816141EA76
:10181000921104EBCC044FEAD1374FEA826206FB07
:1018200007FC42EA90124FEA80604FEA1C4C0CFB26
:101830000BF7D21B03FB0CF761EB07010CFB0EF758
:10184000B0EB074072EB17420CFB08F734BFA2EB7A
:101850000742B2EB074261EB17414FEA8C554FEA62
:10186000910704EB9C2406FB07FC4FEA1C4C0CFB85
:101870000BF7B0EBC74072EB573203FB0CF734BFEA
:10188000A2EBC742B2EBC74261EB57310CFB0EF73C
:10189000B0EBC70072EB57720CFB08F734BFA2EB3A
:1018A000C702B2EBC70261EB577115EB4C254FEA4B
:1018B000816141EA92114FEA82624FEAD13742EAEE
:1018C000901206FB07FC44F100044FEA80604FEAE7
:1018D0001C4C0CFB0BF7D21B03FB0CF761EB070155
:1018E0000CFB0EF7B0EB074072EB17420CFB08F74E
:1018F00034BFA2EB0742B2EB074261EB174115EB95
:101900001C154FEA813141EA92414FEA823242EAA4
:1019100090424FEA80304FEA0C7644F1000448EAE6
:1019200003434EEA0B484FF0000EB2EB080C71EB8C
:10193000030724BF624639464EEB0E0E4FF0000BF4
:101940000018524149414BEB0B0BB2EB080C71EB09
:1019500003077BF1000B24BF624639464EEB0E0EA7
:101960004FF0000B0018524149414BEB0B0BB2EB0F
:10197000080C71EB03077BF1000B24BF624639466C
:101980004EEB0E0E51EA020718BF46F0010616EBA9
:101990000E7655F1000254F1000103D5BDE889012E
:1019A000BDE80088BDE88901BDE80048B61952418C
:1019B00041EB0101A3F10103704780807F7E7D7CB4
:1019C0007B7A7978777676757473727171706F6ED1
:1019D0006E6D6C6C6B6A6A6968686766666564647C
:1019E000636362616160605F5F5E5E5D5D5C5C5B06
:1019F0005B5A5A5959585857575656555555545475
:101A0000535352525251515050504F4F4F4E4E4DD2
:101A10004D4D4C4C4C4B4B4B4A4A4A49494948481E
:101A2000484747474746464645454544444444435E
:101A300043434342424242414141002B9C4630D401
:101A400077002BD01CB54FEA370703B44FF01000D6
:101A50004FF01001BAF1000F06D0BCF1000FDCBF4F
:101A600040F0080040F008014FF000000FBCBDE856
:101A700010400BF1010BBBF1010F08BF5FEA170724
:101A800022BF12F1010211F101014FF0004143F1B7
:101A9000000300F0004043EA00007047F9D3570804
:101AA000D0E746EA064613F1400F4FEA16461FDD1F
:101AB00013F1200FDFBF16430A46002120335B429B
:101AC000BED0C3F1200746EA064602FA07F74FEAFE
:101AD000164646EA0706C3F1200722FA03F201FA86
:101AE00007F721FA03F14FF0000342EA0702A7E7E4
:101AF00046EA020646EA06464FEA164646EA010666
:101B0000BCBF46EA0646360C4FF000034FF0000219
:101B10004FF0000194E72DE9804C9A46934670B44B
:101B200091E8380007C831EA400C48BF34EA430C5A
:101B300003D5FFF7E6FDFFF780FFF0BCBDE8008CA2
:101B40002DE9804C9A46934670B491E8380007C856
:101B500010F0804F08BF13F0804F03D100F005F85C
:101B6000FFF76BFFF0BCBDE8008C20F07F4780EAF8
:101B7000030023F07F4C07EB0C03A3F57C5300F02C
:101B80000040A3F1FE0392F0000F00F0B38095F047
:101B9000000F00F077802DE901494FEA11404FEA2C
:101BA000144621EA004800FB06FC24EA064708FB2D
:101BB00006F607FB08F800FB07F718EB06484CEBA6
:101BC000164C4FEA124B18EB07484FEA15464CEB00
:101BD000174022EA0B4E0BFB06FC25EA06470EFBDC
:101BE00006F607FB0EFE0BFB07F71EEB064E4CEB53
:101BF000164C4FF000061EEB074E4CEB174B18EB44
:101C00000B0840F1000018EB0E0B58EB000840F1F8
:101C100000008F1A4FF000013CBFC943661B14BF80
:101C2000B5EB040C00213CBFC943F61B4FEA174437
:101C30004EEA8E0E27EA04454FEA1C4704FB076272
:101C40002CEA074C05FB07F70CFB05F604FB0CFC24
:101C500016EB074642EB174216EB0C4642EB1C42D2
:101C60001BEB060658EB0202414146EA9E0601D5EF
:101C7000BDE80189B619524141EB0101A3F101030D
:101C8000BDE801894FEA14454FEA114724EA0546A9
:101C900021EA074C05FB07F406FB07F70CFB06F1EE
:101CA00005FB0CFC11EB074144EB17444FEA1247CC
:101CB00011EB0C4144EB1C4422EA074C05FB07F2F4
:101CC00006FB07F70CFB06F605FB0CFC16EB0746BC
:101CD00042EB174216EB0C4642EB1C456A1854F1D6
:101CE000000148BF7047B619524141EB0101A3F111
:101CF0000103704795F0000F37D04FEA11424FEAC9
:101D0000144721EA024624EA074C02FB07F106FBCE
:101D100007F70CFB06F402FB0CFC14EB074441EB49
:101D200017414FEA154714EB0C4441EB1C4125EADF
:101D3000074C02FB07F506FB07F70CFB06F602FB58
:101D40000CFC16EB074645EB174516EB0C4645EB2E
:101D50001C42121951F1000148BF7047B619524197
:101D600041EB0101A3F1010370474FEA14454FEA2B
:101D7000114724EA054621EA074C05FB07F106FB5B
:101D800007F70CFB06F24FF0000605FB0CFC12EB0C
:101D9000074241EB174112EB0C4251EB1C4148BF8B
:101DA0007047921841EB0101A3F101037047000055
:101DB00070B5044600688168C943C90717D18168B6
:101DC00021F00101816000F015FE05460AE000BF28
:101DD00000F010FE401B022804D920688068C04330
:101DE000C00706D020688068C043C007F0D000203C
:101DF00070BDA06A40F01000A062E06A40F00100EF
:101E0000E062012070BD0000F8B50026044600968F
:101E100000688168C943C9072DD0816841F001017C
:101E20008160164816490068B0FBF1F000E0401EE2
:101E300000900028FBD100F0DDFD054616E000BF54
:101E400000F0D8FD401B022810D920688068C043EC
:101E5000C0070BD0A06A40F01000A062E06A40F01A
:101E60000100E06284F824600120F8BD20688068E9
:101E7000C043C007E4D10020F8BD000018000020D6
:101E800040420F00FEE770B50C46054602F09CFC90
:101E900020EA04012846BDE8704003F0C9B90000FB
:101EA0008AB0804C00254FF47A71206803F072FBF1
:101EB00060B901217CA2084602F074FB7EA20121D8
:101EC000022002F06FFB206803F0C1FB40F2DC50FF
:101ED00003F01EFB4FF47A71206803F05BFBDFF820
:101EE000E891DFF8E8A1DFF8E8B14FF4FA770028CD
:101EF00062D1012002F021FA00F07CFD00F07AFDB1
:101F000008A802F0DDFB064600F074FDDEB16D1C92
:101F1000EDB2384603F0FCFA032DEFD36DA2012198
:101F2000022002F03FFB6FA20121032002F03AFBE6
:101F3000002500F05FFD64214E46D9F8000003F053
:101F400029FBE0B122E0012157A2084602F02AFB5A
:101F50009DF823309DF8222066A16846FEF7E8F937
:101F60006A460121022002F01DFB9DF821309DF8F8
:101F7000202064A16846FEF7DBF96A46D4E7DAF868
:101F80000050306803F063FB5D4509D2284606F037
:101F9000A7FC02460B4660A16846FEF7C9F903E0BC
:101FA00061A16846FEF7C4F96A460121042002F0E7
:101FB000F9FA206803F04BFBDFF87C8198F8000009
:101FC000002869D15FF0000500F014FD08A802F0B8
:101FD00077FB064600F00EFD36B16D1CEDB23846BB
:101FE00003F096FA032DEFD300F004FD4FF47A715D
:101FF000206803F0CFFA00284ED1002596B135A213
:102000000121022002F0CEFA36A20121032002F0C3
:10201000C9FA00F0EFFC6421D9F8000003F0BAFA25
:10202000B8B11EE09DF823309DF8222031A168460A
:10203000FEF77EF96A460121022002F0B3FA9DF80C
:1020400021309DF820202FA16846FEF771F96A46DD
:10205000DBE7DAF80050D9F8000003F0F8FA5D4544
:1020600009D2284606F03CFC02460B462AA16846E7
:10207000FEF75EF903E02CA16846FEF759F96A46BF
:102080000121042002F08EFA3246294608A802F007
:1020900025FC206803F0DBFA41F2883003F038FABF
:1020A0008CE7000000000020202020454E56204DE7
:1020B0004F4E202020000000496E697469616C69F0
:1020C0007A696E672E2E2E0004000020BC000020CE
:1020D0000000808054656D703A202D2D2E2D2043F8
:1020E0000000000048756D693A202D2D2E2D202509
:1020F0000000000054656D703A202532642E2531B1
:102100006420430048756D693A202532642E2531DC
:1021100064202525000000004151493A2020253443
:102120002E30662050504D004151493A20202D2D2F
:102130002D2D2050504D0000A8000020114810B552
:10214000816986B041F00401816180690E4C00F024
:1021500004000490022000900120019000200290D1
:10216000032003906946204600F04AFB0122022129
:10217000204600F03AFC40F2DC5000F02FFB06B0A5
:1021800010BD000000100240000801401FB50220F1
:1021900000900120019000200290032003906946E6
:1021A000014800F02DFB1FBD0008014000B589B0BB
:1021B000242206496846FEF7CCFA6A460021044804
:1021C00003F066FA0349086009B000BDCC95000829
:1021D000A11E0008A400002000B50B489BB0417868
:1021E00001B101210091007801280AD0002307A243
:1021F000642101A8FEF7B2F801A802F07FFC1BB031
:1022000000BD0123F3E70000C80000207B22446FDB
:102210006F72223A25642C224C6F636B223A25643C
:102220007D0D0A0070B50D4C4FF4E17558B10020DA
:1022300002F040FB284603F06BF9012002F03AFB64
:102240000120607070BD022002F034FB284603F0CC
:102250005FF9012002F02EFB0020F2E7C800002009
:1022600001F072FC02F020FB01F066FC00B10120DD
:102270001C4C1D4F4FF4805620703146384600F0FC
:10228000AFFB05462078A0706078E070FFF7A4FFF0
:102290004FEA060801F050FC00B1012020704146D1
:1022A000384600F09DFB0646A84206D0012E16D007
:1022B0005FF00100FFF7B6FF35462078A17888422D
:1022C00003D16078E178884205D0FFF785FF207858
:1022D000A0706078E070642003F01AF9DAE700205B
:1022E000E8E70000C8000020000C014000B589B0FC
:1022F000242206496846FEF72CFA6A460021044863
:1023000003F0C6F90349486009B000BD5C960008B7
:1023100061220008C80000207047002100EB400047
:1023200001E000BF491CB1EB800FFAD3704772B6D1
:10233000FEE70000F8B50024009490F8242025461C
:10234000012A12D0012280F824204A681F23072A7C
:102350000DD20668776B521E02EB820293409F43B8
:102360000B6893401F43776319E00220F8BD0668AD
:102370000D2A0AD2376BD21F02EB820293409F4391
:102380000B6893401F43376309E0F76A0D3A02EB8D
:10239000820293409F430B6893401F43F7620A6891
:1023A000072306680A2A0AD3F7680A3A02EB4202B0
:1023B00093409F438B6893401F43F76008E0376961
:1023C00002EB420293409F438B6893401F43376167
:1023D0000A68102A01D0112A20D1124B02689A42B1
:1023E00017D193681B0219D4936843F400039360D8
:1023F0000968102912D10C490C4A0968B1FBF2F1A5
:1024000001EB8101490000E0491E00910029FBD148
:1024100004E0816A41F020018162012480F82450A7
:102420002046F8BD002401401800002040420F0063
:102430000068C06C704700002DE9F0414FF00007C4
:1024400004003D467ED0A06A002628B9E66284F8E2
:102450002460204600F07EF82046FFF7A9FCA16A20
:10246000C90600D420B1A06A40F01000A06269E063
:10247000A16A21F4885141F00201A1626268E16918
:10248000237B0A4347EA43010A43A1684FF480775C
:10249000B94209D0012907D05FF0000194F814C0B7
:1024A000BCF1010F02D00AE03946F7E7F3B1A36AA5
:1024B00043F02003A362E36A43F00103E36223686D
:1024C000D3F804C02CF4694C4CEA010CC3F804C0E6
:1024D00021688B68DFF870C003EA0C0313438B603C
:1024E000A168B9420BD0012909D00CE0DFF85CC02B
:1024F000A3690CEB43330B4343F40061DFE7218A0C
:102500000D05A5F580152168CB6A23F470032B43D4
:10251000CB62216889680E4B1940914208D1E6626E
:10252000A16A21F0020141F00101A162BDE8F08140
:10253000A06A20F0020040F01000A062E06A40F0C3
:102540000100E0620120F1E7FDF7E1FF00E0FFFF9D
:10255000FE0E1FFF00B585B0002100910191029190
:10256000039100680E49884218D10E48816941F4F0
:1025700000718161816901F400710491816941F008
:10258000040181618069694600F004000490042020
:10259000009003200190044800F032F905B000BD1E
:1025A0000024014000100240000801402DE9F843DA
:1025B00000270D460446009700F01CFA804620686C
:1025C0008168C90508D5A06A40F02000A06284F89F
:1025D00024700120BDE8F8834168C90503D4C06AAE
:1025E00010F4700F2AD0022000F0CEFA3B4909689F
:1025F000B1FBF0F62068036939490B424FEA6101EB
:102600004FEAA1121FD1C3684FEA611C13EA0C0FF5
:1026100019D103690B4225D1C068104222D1142080
:1026200023E0681C0AD02DB100F0E4F9A0EB08000B
:10263000A84203D920680068800725D52068006873
:102640008007EED52DE003690B4202D1C16811422B
:1026500006D0026923490A4206D1C068084203D164
:10266000542002E0292000E0FC204643009816E0B8
:10267000681C11D02DB100F0BDF9A0EB0800A842F4
:102680000AD90098B04207D2A06A40F00400A062C4
:1026900084F8247003209DE70098401C0090B0420D
:1026A000E6D321686FF012000860A06A40F4007061
:1026B000A06220688068C0F3424007280CD1207BCC
:1026C00050B9A06A20F48070A062A06AC00403D44C
:1026D000A06A40F00100A06200207BE71800002003
:1026E000244992244992240070B5044690F82400AD
:1026F00001280DD0012084F824002046FFF784FB38
:1027000002004FF0000005D084F82400104670BD90
:10271000022070BDA16A40F20123994341F4807107
:10272000A1621F4D23681F49AB4218D10E6816F4F1
:10273000702F14D0A66A46F48016A6620E6876053D
:1027400005D5A66A26F4005646F48056A662A66A07
:10275000F6040AD5E66A26F00606E66206E0A66AF0
:1027600026F48016A6625E68E9E7E06284F8240039
:102770006FF00200186020688368C3F34243072BA0
:1027800005D1A84208D1096811F4702F04D08168DE
:1027900041F480118160B9E7816841F4A001F9E753
:1027A000002801400424014010B5044690F824009C
:1027B000012807D0012084F824002046FFF7F8FA0A
:1027C00010B107E0022010BDA16A21F4885141F048
:1027D0000101A162002184F8241010BD70B50446E7
:1027E00000F008F90546601C02D004480078044453
:1027F00000F000F9401BA042FAD370BD0C0000208D
:102800002DE9F84FDFF8B8910024A9F1040B234615
:102810000F2709F1040AABF1040EC9E00125A54018
:102820002A40AA427DD1674ED1F804C0ACEB06081D
:10283000B44532D014DCBCF1030F3AD009DCBCF152
:10284000000F2AD0BCF1010F1CD0BCF1020F31D116
:102850001DE0BCF1110F17D0BCF1120F2AD119E005
:10286000B8F5881F19D006DCB8F5803F15D0B8F54B
:10287000801F1FD111E0B8F5001F0ED0B8F5041F5E
:1028800018D10AE0CB6815E0CB681B1D12E0CB68BD
:1028900008330FE0CB680C330CE08B682BB1012BB5
:1028A0004FF0080303D0456104E0042302E0056112
:1028B00000E00023FF2A01D8064601E000F10406EB
:1028C0004FEA840501D9A5F12005D6F8008007FA62
:1028D00005FC28EA0C0803FA05F548EA0508C6F8DD
:1028E00000804D68ED0062D5374DAE6946F00106B7
:1028F000AE61AD6924F0030605F001050095334D86
:1029000006EB050CDCF80850A607360F07FA06F8A8
:1029100025EA0805DFF8B880404503D14FF00008EC
:1029200017E044E0DFF8AC80404502D14FF00108E9
:102930000FE0DFF8A480404502D14FF0020808E024
:10294000DFF89880404502D14FF0030801E04FF0D6
:10295000040808FA06F848EA0508CCF808804D682B
:10296000D9F80060ED024D4601D5164300E09643CC
:102970002E604D68DAF80060AD02554601D5164369
:1029800000E096432E604D68DBF80060AD035D46C5
:1029900001D5164300E096432E604D68DEF80060D6
:1029A000ED03754601D5164300E096432E60641C86
:1029B0000D682A46E5407FF431AFBDE8F88F00008E
:1029C0000804014000001110001002400000014006
:1029D00000080140000C01400010014000140140BB
:1029E0008068084000D0012070470AB1016170473B
:1029F0000904FBE701488068704700000C000020D4
:102A00000248816802781144816070470C00002000
:102A1000074810B5016841F010010160032000F083
:102A2000A1F80F2000F006F800F04AF8002010BDD1
:102A30000020024030B505461C4887B0816941F44A
:102A400000618161806906A900F40060009001A81E
:102A500000F0F8F900F026FA1549164AB0FBF1F13A
:102A60001548491E0260416040F2E7320021C0E98A
:102A700003218160816100F011FC040012D10E4835
:102A800000F03AFC04000DD1192000F03DF8102DA3
:102A900007D200222946192000F044F807480560B3
:102AA00000E0012407B0204630BD000000100240C5
:102AB00040420F00002C014098010020100000202F
:102AC0000F4808B5816941F001018161816901F018
:102AD00001010091C16941F08051C161C0690022CA
:102AE00000F0805000900F21901E00F01BF8054868
:102AF000416821F0E06141F00071416008BD0000D3
:102B00000010024000000140002809DB00F01F0215
:102B1000012191404009800000F1E020C0F800113F
:102B200070470000F0B40E4B1B680C46C3F3022341
:102B3000C3F10705042D00D90425191D072901D269
:102B4000002300E0DB1E012606FA05F1491E2140A4
:102B500099409E40761E16403143F0BC02F0E8BB1F
:102B60000CED00E0064900F0070208684FF6FF038D
:102B7000184040EA0220034A1043086070470000F2
:102B80000CED00E00000FA0510B501460020234CD2
:102B9000012922D0022939D010291DD1616822686B
:102BA000D20119D51E48C1F38342C903805C0AD5FE
:102BB00061681B4AC1F34041921E515C194AB2FB45
:102BC000F1F1484301E0184948436168490203D4E0
:102BD00040000321B0FBF1F010BD226AC2F30121D5
:102BE000012903D1920701D5C80310BD022905D1DF
:102BF000626A920702D549F6404010BD0329FCD114
:102C000021688903F9D54FF2244010BD00F04AF93C
:102C10006168C1F38131491C4900DBE700100240C3
:102C2000B48F000800127A0000093D002DE9F84336
:102C300005460078354CC00754D0E0690026C00036
:102C400008D4E06940F08050E061E069012600F0BE
:102C5000805000902E480168C90512D40168804652
:102C600041F480710160FFF7C5FE074605E000BF33
:102C7000FFF7C0FEC01B642823D8D8F80000C005A9
:102C8000F6D5206A10F4407021D0A98801F4407173
:102C900081421CD0206A1F49012220F440700A6042
:102CA00000220A602062C00711D0FFF7A3FE07468A
:102CB00041F2883808E000BFFFF79CFEC11B414588
:102CC00002D90320BDE8F883206A8007F4D5206A82
:102CD000696820F44070084320621EB1E06920F06A
:102CE0008050E0612878800705D56068A96820F4E5
:102CF0004040084360602878C00605D56068E968F0
:102D000020F48000084360600020DBE700100240F0
:102D100000700040400442422DE9F0470F46050094
:102D200061D0434E306800F00700B84209D23068E5
:102D300020F0070038433060306800F00700B842E8
:102D400051D128683B4C810712D5400703D56068F4
:102D500040F4E06060602878000703D5606840F4C4
:102D6000605060606068A96820F0F000084360600F
:102D70002878C00728D06868012810D02168022868
:102D800010D0890700292EDA616821F00301014380
:102D90006160FFF72FFE804641F288390DE021681F
:102DA0008903EFE78901EDE7FFF724FEA0EB0801B7
:102DB000494502D90320BDE8F0876068696800F0E2
:102DC0000C00B0EB810FEFD1306800F00700B84283
:102DD0000BD9306820F0070038433060306800F0CD
:102DE0000700B84201D00120E5E72878400705D563
:102DF0006068E96820F4E0600843606028780007B4
:102E000006D56068296920F4605040EAC10060601E
:102E100000F058F86168084AC1F30311515CC840DA
:102E20000649086006480068FFF704FE0020C2E774
:102E30000020024000100240C48F0008180000204B
:102E4000100000200F2202600C4A536803F00303B5
:102E50004360536803F0F0038360536803F4E06356
:102E6000C36052684FF4E06303EAD202026104488F
:102E7000006800F007000860704700000010024082
:102E8000002002400448054900684968044AC1F32B
:102E90000221515CC8407047180000200010024019
:102EA000D48F00080448054900684968044AC1F302
:102EB000C221515CC8407047180000200010024039
:102EC000D48F00080E4A51680E4801F00C03042B01
:102ED00011D0082B0FD10C48C1F38343C903C05C48
:102EE0000AD55168084AC1F34041921E515C054A17
:102EF0005043B0FBF1F0704704494843704700006D
:102F00000010024000127A00A28F000800093D0064
:102F10002DE9F84F040070D02078C04DC00749D08B
:102F20006868C0F38100012807D06868C0F3810099
:102F3000022809D16868C00306D52868800339D5FE
:102F400060680028E7D035E06068B0F5803F0BD0BE
:102F500010B1B0F5A02F11D0286820F4803028607F
:102F6000286820F4802002E0286840F4803028603F
:102F7000606890B1FFF73EFD06460AE0286840F41D
:102F800080202860F0E700BFFFF734FD801B642835
:102F900073D828688003F7D50CE0FFF72BFD0646B1
:102FA00005E000BFFFF726FD801B6428F0D82868E5
:102FB0008003F7D420789A4E80074FF001094FF034
:102FC000000839D5686810F00C0F07D06868C0F3A6
:102FD0008100022809D16868C00306D428688007E8
:102FE00014D52069012808D110E02069B0B1C6F8D5
:102FF0000090FFF7FFFC074605E00AE1FFF7FAFC47
:10300000C01B0228C4D828688007F7D528686169E2
:1030100020F0F80040EAC10028600DE0C6F800800A
:10302000FFF7E8FC074604E0FFF7E4FCC01B0228BA
:1030300023D828688007F7D4207800072CD5794852
:10304000A169D9B1C0F80090FFF7D4FC074604E0AD
:10305000FFF7D0FCC01B02280FD8686A8007F7D59D
:1030600071484FF4FA510068B0FBF1F0009000BFD6
:103070000098411E0091FAD20EE080E0C0F8008076
:10308000FFF7B8FC074604E0FFF7B4FCC01B0228BA
:1030900075D8686A8007F7D42078400760D5E8695A
:1030A0000027C00008D4E86940F08050E861E86972
:1030B000012700F0805000905C480168C90513D4D6
:1030C0000168834641F480710160FFF793FC8246FA
:1030D00006E000BFFFF78EFCA0EB0A0064284ED884
:1030E000DBF80000C005F5D5E06801280AD008B17A
:1030F000052813D0286A20F001002862286A20F0F1
:10310000040002E0286A40F001002862E06841F211
:10311000883B98B1FFF76EFC82460BE0286A40F0CE
:1031200004002862EEE700BFFFF764FCA0EB0A0191
:1031300059455AD8286A8007F6D50CE0FFF75AFCA3
:10314000824605E0FFF756FCA0EB0A0159454CD832
:10315000286A8007F6D41FB1E86920F08050E86142
:10316000E06988B36968C1F38101022944D002286B
:10317000C6F8608004D0FFF73DFC044638E034E038
:10318000FFF738FC074604E0FFF734FCC01B0228B9
:103190002BD828688001F7D4206AB0F5803F05D18C
:1031A0006868A16820F4003008436860D4E9080129
:1031B0000843696821F4741108436860C6F8609098
:1031C000FFF718FC044606E025E000BFFFF712FCFD
:1031D000001B022809D828688001F7D51BE000BF32
:1031E000FFF708FC001B022802D90320BDE8F88F76
:1031F00028688001F4D40EE00128F7D06868226ABC
:1032000000F48031914204D1616A00F47010884268
:1032100001D00120EAE70020E8E7000000100240AA
:10322000000042428004424218000020007000402A
:103230007047704770B590F83C20012A26D00124D1
:1032400080F83C40022280F83D2003685A689D685F
:1032500022F070060A6832435A600D4B02689A42A7
:1032600008D0B2F1804F05D00A4B9A4202D00A4BE7
:103270009A4204D1496825F080031943916080F88F
:103280003D40002180F83C10084670BD022070BD12
:10329000002C0140000400400008004010B504006C
:1032A00003D094F83D0010B107E0012010BD0020CC
:1032B00084F83C00204600F01EF8022084F83D000F
:1032C000211D206801F00AFE012084F8460084F8E0
:1032D0003E0084F83F0084F8400084F8410084F800
:1032E000420084F8430084F8440084F8450084F8E0
:1032F0003D00002010BD704790F83D10012901D01D
:1033000001207047022180F83D100168CA6842F030
:103310000102CA6000680B49884208D0B0F1804FB2
:1033200005D00949884202D00849884204D1816801
:1033300001F00701062903D0016841F00101016095
:1033400000207047002C01400004004000080040AD
:1033500070472DE9F04104460068C66805694FF0E2
:103360000007A90713D5B10711D5F91E0161012086
:103370002077206880698007204602D0FFF7E8FFA9
:1033800004E000F0AFF8204600F052F92777680714
:1033900016D5700714D521686FF00400086102206B
:1033A00020772068806910F4407F204602D0FFF724
:1033B000CFFF04E000F096F8204600F039F92777B7
:1033C000280715D5300713D521686FF0080008616C
:1033D000042020772068C0698007204602D0FFF7CC
:1033E000B7FF04E000F07EF8204600F021F92777CF
:1033F000E80616D5F00614D521686FF010000861B4
:10340000082020772068C06910F4407F204602D051
:10341000FFF79EFF04E000F065F8204600F008F991
:103420002777E80708D0F00706D021686FF0010081
:103430000861204600F04CF9280608D5300606D56C
:1034400021686FF0800008612046FFF7F1FE6806F2
:1034500008D5700606D521686FF040000861204647
:1034600000F040F9A8060AD5B00608D521686FF02B
:10347000200008612046BDE8F041FFF7DABEBDE854
:10348000F081000000B585B000210091019102910A
:1034900003910068B0F1804F1CD10F48816941F061
:1034A000080181618069694600F0080004904FF4CA
:1034B0008060009002200190032003900748FFF7EE
:1034C0009FF90748416821F4407141F0E06141F4FF
:1034D0000071416005B000BD00100240000C0140C9
:1034E00000000140704770B5044690F83C0000268B
:1034F0000D4601280FD0012084F83C006AB1042A4F
:103500001DD0082A2FD00C2A3FD00126002084F895
:103510003C00304670BD022070BD206801F028FDDF
:103520002068816941F0080181612068816921F08A
:1035300004018161206881692A69114311E02068D2
:1035400001F03EFD2068816941F4006181612068DD
:10355000816921F480618161206881692A6941EA79
:1035600002218161D2E7206801F056FD2068C1691F
:1035700041F00801C1612068C16921F00401C16105
:103580002068C1692A69114311E0206801F070FDCB
:103590002068C16941F40061C1612068C16921F4FA
:1035A0008061C1612068C1692A6941EA0221C16163
:1035B000ACE710B5040003D094F83D0010B107E06B
:1035C000012010BD002084F83C00204600F01EF8C9
:1035D000022084F83D00211D206801F07FFC0120BD
:1035E00084F8460084F83E0084F83F0084F84000E8
:1035F00084F8410084F8420084F8430084F84400D1
:1036000084F8450084F83D00002010BD08B500682E
:10361000B0F1804F08D10548C16941F00101C16195
:10362000C06900F00100009008BD000000100240D9
:103630007047000010B50446022249B104290ED09B
:10364000082913D094F84100012816D0012010BD9C
:1036500094F83E000128F9D184F83E200FE094F858
:103660003F000128F2D184F83F2008E094F84000A0
:103670000128EBD184F8402001E084F841200122A8
:10368000206801F067FC0F492068884203D1426C32
:1036900042F4004242642068884208D0B0F1804F72
:1036A00005D00949884202D00849884204D181687E
:1036B00001F00701062903D0016841F00101016012
:1036C000002010BD002C0140000400400008004014
:1036D00000680349884201D1FFF792B970470000A2
:1036E000002C0140704770B5040004D094F84100EC
:1036F000002510B106E0012070BD84F8405020463E
:1037000000F024F8242084F841002068C16821F4E6
:103710000051C160204601F0F5FC2068016921F4E8
:10372000904101612068416921F02A0141612068CE
:10373000C16841F40051C1606564202084F84100F3
:1037400084F842006563002070BD000030B585B08C
:103750000024009401940294039400681449884260
:1037600024D11448816941F480418161816901F467
:1037700080410491816941F00401816180690E4DAD
:1037800000F0040004904FF40070009002200190BB
:103790000320039069462846FFF732F82815CDE943
:1037A0000004694628460294FFF72AF805B030BDA8
:1037B0000038014000100240000801402DE9F84F98
:1037C000044690F842009A4616460D46202802D03C
:1037D0000220BDE8F88FB5B1AEB1002060642221AF
:1037E00084F842102063FFF705F9A6858146E68537
:1037F000A0684FF480582027404501D1206920B1AE
:103800002E46002529E00120E3E7002625E04B466F
:10381000002220212046CDF800A001F0CFFC18B1F5
:1038200084F842700320D4E726B1A06840451AD03E
:1038300038B108E020684068C0F3080025F8020BA2
:1038400008E0206978B12068406800F07F0000BF80
:1038500006F8010BE08D401EE085E08D0028D6D1F2
:1038600084F84270B5E720684068F1E72DE9F84335
:10387000044690F84100984616460D46202802D08E
:103880000220BDE8F88385B17EB10020606421206C
:1038900084F84100FFF7AEF8A6848146E684A0686C
:1038A0002027B0F5805F02D003E00120E9E720691E
:1038B00010B12E4600250EE000260CE080212046A7
:1038C00001F07CFCA8B9C6B116F8010B216848606C
:1038D000E08C401EE084E08C4B464FF00002CDF8B7
:1038E00000800028EAD14FF04001204601F066FC3C
:1038F00040B184F841700320C3E735F8020BC0F3F0
:103900000800E3E784F841700020BAE7FEE7000012
:10391000002408B5A146A04625462646532001F0BE
:10392000E1F8544FDFF850A14FF4004B684601F026
:10393000CBF8B0B19DF8000059280AD0522808D021
:103940004E2806D0432808D0442806D04F2804D05B
:1039500007E000243870254603E04FF00009787036
:10396000C8463878522829D059284FF000020ED086
:103970004FF4805154465046FFF737F8002259461D
:103980002046FFF732F8012202213C480BE059465D
:103990005046FFF72AF8022D34D300253CB100220F
:1039A0004FF480515046FFF720F800242AE001220E
:1039B00011035046FFF719F8012423E000224FF4C9
:1039C00080515046FFF711F8022D0ED3002534B177
:1039D000002259465046FFF708F8002405E001226E
:1039E00059465046FFF701F801240A2E01D300265C
:1039F00001E0022E01D2002200E0012202211F4834
:103A0000FEF7F3FF787843280BD0442811D000222A
:103A10004FF400615046FEF7E8FF4FF000094846BA
:103A200020E00122D1025046FEF7DFFF4FF00109EE
:103A300019E0B8F10A0F13D34FF00008B9F1000FE5
:103A400007D000224FF400615046FEF7CEFF002061
:103A500005E00122D1025046FEF7C7FF0120814652
:103A600008F10100804664206D1C761C01F050FDB9
:103A70005CE70000D000002000080140000C01407D
:103A800030B5274885B0816941F0040181618169C1
:103A900001F004010491816941F0080181618069AC
:103AA0004FF4006400F0080004900120CDE90040CC
:103AB00003201C4D039069462846FEF7A1FE002214
:103AC00021462846FEF791FF640069462846009487
:103AD000FEF796FE002221462846FEF786FFE40008
:103AE000694628460094FEF78BFE002221462846B0
:103AF000FEF77BFF02200C4C009069462046FEF743
:103B00007FFE012202212046FEF76FFF074A0021B7
:103B1000074801F0BDFD0749486005B030BD000011
:103B20000010024000080140000C0140809600088F
:103B300011390008D00000204FF400510148FEF771
:103B40004FBF000000100140704710B5142000F076
:103B50003BFE800705D10321BDE81040142000F092
:103B6000D9BF10BD70B50646082188B000240846AC
:103B7000FEF789F900210D2001F05AFB80210E206B
:103B8000FEF781F993208DF8040020208DF80500C0
:103B900006A801AB0090022219460C2000F0E8F8BC
:103BA000054626280DD1002101A8425C7254425CD2
:103BB000491C5440C9B20429F7D3405CA04200D04C
:103BC000BB2580210E2000F0A5FF08B0284670BD5F
:103BD000F0B585B0274800240294816941F00801BE
:103BE00081618069012500F0080004908020CDE902
:103BF0000005214F0326694603963846FEF700FE6E
:103C00004020CDE90005CDE9024669463846FEF779
:103C1000F7FD2020CDE90005CDE90246694638468A
:103C2000FEF7EEFD1020CDE9000469463846029407
:103C3000FEF7E6FD0820CDE90005CDE9024669461C
:103C40003846FEF7DDFD012280213846FEF7CDFE25
:103C5000002240213846FEF7C8FE002220213846C7
:103C6000FEF7C3FE012208213846FEF7BEFE05B06E
:103C7000F0BD000000100240000C014030B50C46C1
:103C80000546082187B00846FEF7FDF807210D20FC
:103C900001F0CEFA0321142000F03CFF06A801AB8E
:103CA00000908DF80450012219460C2000F060F8B5
:103CB000262802D10699102902D0BB2007B030BDBA
:103CC0009DF8041021709DF805106170F6E7000062
:103CD00010B5264C012208212046FEF786FE012061
:103CE000FEF77CFD002208212046FEF77EFE012023
:103CF000FEF774FD012208212046FEF776FE012022
:103D0000FEF76CFD0F21012001F092FA4FF4FA74D6
:103D100003E00120FEF762FD641E012000F054FD67
:103D2000C00602D5002CF4DC01E0002C01DCBB2035
:103D300010BD0120FEF752FD3D21112001F078FA5F
:103D40001E212D2001F074FA00212C2001F070FAC0
:103D50008D212A2001F06CFA3E212B2001F068FA17
:103D60004021152001F064FA262010BD000C01400E
:103D70002DE9FF5F0027BB25DDF838A016468B46EE
:103D80008146B8460C2805D0B9F10E0F05D112278F
:103D9000102001E077273020804647F08001022084
:103DA00001F046FA80210420FEF76DF80021012081
:103DB00001F03EFA80210A2000F0ACFE002405E06C
:103DC0001BF80410092001F033FA641CB442F7D345
:103DD0004946012001F02CFAB9F10C0F03D18021E2
:103DE0000D2000F097FE042000F0EEFC40F2DC56BF
:103DF000042000F0E9FC0446761E04D0E00702D15E
:103E000014EA080FF4D080210D20FEF73CF836B1FB
:103E1000062000F0D9FC10F01B0F0CD0BB25802130
:103E20000C2000F077FE0021012001F001FA04B01F
:103E30002846BDE8F09F26253C40E00700D0CC2571
:103E4000B9F10C0FEBD10A2000F0BEFC04460C20A7
:103E500000F0BAFC10F007004FEAC40101D00839A5
:103E60000144CAF8001024B1122C04D912240026EF
:103E700003E00124FBE7002605E0092000F0A4FC94
:103E800003998855761CA642F7D3C8E70B4D0C4C16
:103E9000002640F6B83700BF00F0E9F858B12078A6
:103EA00010B100F02BF8267000F06AF86060384618
:103EB00001F02EFBF0E76560F9E70000000080BF2D
:103EC000B800002010B50C48FEF70EFC08B1002029
:103ED00010BD64210848FEF769FB0028064802D09F
:103EE000FEF762FCF3E7FEF7A3FA04460248FEF78A
:103EF0005BFC204610BD0000D80000202DE9F047F3
:103F00004FF000090A264C464D46174FDFF85C80FB
:103F100000F08AF8C2190146424505D2484604F02D
:103F20000BFD641C8146E4B26420FEF757FC6D1C57
:103F3000EDB2B542ECD33CB1204604F027FE014679
:103F4000484604F061FD00E009480A4904F05CFDC0
:103F50000949054AD2434860904202DB074A904231
:103F600000DD4A60BDE8F087FFFF85BBFF23FA0450
:103F700000401C46000020409C00002000247449A2
:103F8000F8B500252C462F4641F28836FFF79AFFF8
:103F9000054400970098401C0090B042FADB641C76
:103FA000E4B20A2CF2D30A20B5FBF0F004F0EEFDE7
:103FB000164D294604F0FEFD6FF00B0104F09FFF43
:103FC00004460146284604F0C1FE214604F01CFDCB
:103FD0000F4904F0EFFD0F49496804F015FD04F0A6
:103FE0007FFC00220C4B01F099FB00220B4B04F0EC
:103FF00067F903F0B9FE0A490A4A884201DD08461A
:10400000F8BD9042FCDA1046F8BD000066668640B6
:1040100000007A449C0000200000F8BF00B09840E7
:1040200000409C450000964370B500F020F8002841
:1040300016D004F0ABFD0B4D294604F0BBFD6FF02C
:104040000B0104F05CFF04460146284604F07EFEA6
:10405000214604F0D9FCBDE87040034904F0AABD34
:1040600070BD00006666864000007A447047F8B56F
:1040700000252C462F4641F28836FFF723FF0544E2
:1040800000970098401C0090B042FADB641CE4B238
:104090000A2CF2D30A20B5FBF0F0F8BD10B5FFF7FB
:1040A000E5FF02490120087010BD0000B8000020A3
:1040B0003EB5002411480094019402940E49846096
:1040C000016004730475012505614FF460214460AB
:1040D000C161FEF7B1F908B1FEF729F90220CDE977
:1040E0000005694602940548FEF724F9002801D02E
:1040F000FEF71DF93EBD000000240140D80000205D
:1041000010B500F0D1FCFEF719F800F0AFF900F09F
:1041100001F900F07DFAFEF749F8FFF7BFFF00F064
:1041200005FDFEF7E3F8FFF7ABFC002001F05BFABA
:104130000D4C2060002001F056FA60600B4A00210F
:104140000B4801F0A5FAA0600A4A00210A4801F0D4
:104150009FFA0A490A4A086000210A4801F098FAC1
:104160000949086010BD0000000000207C8F000895
:104170004D4B0008F0950008594B0008B400002092
:10418000149600088D3E0008C00000202DE9F04183
:1041900086B000243048009401940294039481690D
:1041A00041F010018161816901F010010491816980
:1041B00041F020018161816901F020010491816950
:1041C00041F004018161816901F004010491816978
:1041D00041F0080181618069204F00F008004FF430
:1041E00018460490002231463846FEF7FEFBDFF801
:1041F00070800022E8214046FEF7F7FB7814012585
:104200008DE8310069461748FEF7FAFA2803CDE930
:104210000004694640460294FEF7F2FA0220CDE916
:104220000240CDE9006569463846FEF7E9FAE82024
:10423000CDE900050320CDE9024069464046FEF77E
:10424000DFFA10208DE8310069464046FEF7D8FAC3
:1042500006B0BDE8F08100000010024000080140F7
:10426000000C01400010014010B58AB000240794F2
:104270001C2168460894FCF7C8FA16484FF08041A4
:1042800001604721C0E9011444F61F61C0E903142D
:1042900080218161FFF78DF908B1FEF748F8079496
:1042A00007A90C480894FEF7C5FF08B1FEF73FF8D0
:1042B0006020CDE900040294082269460548049470
:1042C000FFF711F908B1FEF732F80248FFF7DAF804
:1042D0000AB010BD080100200C4810B50A49016061
:1042E0004FF4E1314160002181600C22C160C0E9DE
:1042F00004128161C161FFF7F6F9002803D0BDE81F
:104300001040FEF714B810BD0038014050010020E5
:10431000FEE7FEE770B500240021204600F0FCF81F
:104320000025002000F062F96D1CEDB2802DF8D35D
:10433000641CE4B2082CEFD370BD10B508280AD273
:10434000002100F0E9F80024002000F04FF9641C7F
:10435000E4B2802CF8D310BD114810B5816986B045
:1043600041F00801816180690E4C00F00800049062
:104370004FF4407000901120019003200390694693
:104380002046FEF73DFA012211022046FEF72DFBE2
:10439000012251022046FEF728FB06B010BD0000A6
:1043A00000100240000C01402DE9F047144E00249B
:1043B00007464FF080084FF40079B51528FA04F24B
:1043C0003A4049463046FEF710FB01222946304666
:1043D000FEF70BFB002229463046FEF706FB641C65
:1043E000E4B2082CEAD3012229463046FEF7FDFA52
:1043F00029463046BDE8F0470022FEF7F6BA000035
:10440000000C014070B501220B4D54022146284694
:10441000FEF7EBFA0122160231462846FEF7E5FACE
:10442000002221462846FEF7E0FA31462846BDE83C
:1044300070400022FEF7D9BA000C014070B50A4D59
:104440004FF40074002221462846FEF7CEFA0122DE
:1044500011022846FEF7C9FA21462846BDE87040F9
:104460000122FEF7C2BA0000000C014010B5002086
:104470004FF47A720021491C9142FCD3401C9042B7
:10448000F8D3FFF769FFAE2000F09FF8D52000F0C9
:104490009CF8802000F099F8A82000F096F83F20C2
:1044A00000F093F8D32000F090F8002000F08DF891
:1044B000402000F08AF8A12000F087F8C82000F022
:1044C00084F8DA2000F081F8122000F07EF88120D4
:1044D00000F07BF8CF2000F078F8D92000F075F8D4
:1044E000F12000F072F8DB2000F06FF8302000F0CF
:1044F0006CF8A42000F069F8A62000F066F88D2082
:1045000000F063F8142000F060F8AF2000F05DF8D0
:10451000BDE81040FFF7FEBE10B50C4640F0B000FD
:1045200000F053F8102040EA141000F04EF804F0A8
:104530000F00BDE8104000F048B800002DE9F04140
:104540000746CE004000083E801E15464FF0FF385B
:10455000F1B2C0B2FFF7E0FF1148002400EB0515EF
:104560002819A0F5805090F8000E00F03FF8641C68
:10457000E4B2082CF4D308EB4700F1B2C0B2FFF765
:10458000CBFF00242819A0F5805090F8080E00F009
:104590002DF8641CE4B2082CF4D3BDE8F0810000CF
:1045A000DC8F00082DE9F04115460E460746002431
:1045B00006E03019C1B23846FFF7C0FF641CE4B210
:1045C0002A5D002AF5D1BDE8F08110B50446FFF759
:1045D00019FF7820FFF7E8FE0020FFF7E5FE2046F0
:1045E000FFF7E2FEBDE81040FFF728BF10B5044614
:1045F000FFF708FF7820FFF7D7FE4020FFF7D4FE33
:104600002046FFF7D1FEBDE81040FFF717BF0000BE
:1046100010B5FFF7DDFAFFF75BFBFFF796FA3F21D6
:104620000548FCF7D0F80449012081F83E00034911
:104630000020087010BD0000B42E0020A80000204B
:104640002DE9F0470026DFF8748035464FF47A797B
:104650004FF0010A4C464F4602214046FEF7C0F992
:10466000B0B14FB32820FDF758FE0221474640461F
:10467000FEF7B6F901280ED0C5F107010AFA01F0DC
:1046800086436D1CEDB2082DE4D33046BDE8F087BB
:104690007F1EE1D2E6E702213846FEF7A1F90128A4
:1046A00001D04CB101E0641EF5D2C5F107010AFA50
:1046B00001F0C0B20643E4E7FF20E7E7000801404D
:1046C0002DE9FF410025056004460571FDF75EFDFB
:1046D0003C4E002202213046FEF787F91220FEF7F9
:1046E0007DF8012202213046FEF77FF91E20FDF7FA
:1046F00014FE0220CDE900050120029069463046F3
:10470000FEF77EF842F2107502213046FEF768F996
:10471000012801D0F5B301E06D1EF5D24FF47A7592
:104720002F4602213046FEF75BF9A0B397B3022172
:104730003046FEF755F9012841D05DB3FFF780FF01
:104740002070FFF77DFF6070FFF77AFFA070FFF722
:1047500077FFE070FFF774FF2071FDF717FD01226E
:1047600002213046FEF741F92178FF2922D06378F3
:10477000FF2B1FD0A078FF281CD0E278FF2A19D089
:104780002479FF2C16D00B4402441A44A24211D1C2
:104790005F2901E007E00FE00CD83C280AD8002090
:1047A00004B0BDE8F081FDF7F1FC012202213046A2
:1047B000FEF71BF90120F3E77F1EB2D2B7E76D1EAB
:1047C000B5D2BBE7000801402DE9F041354C064663
:1047D00000252A4640212046FEF707F900BF00BF0A
:1047E00000BF002280212046FEF7FFF800BF00BF77
:1047F00000BF7E2000EA460040F080070826380609
:1048000001D5012200E0002220212046FEF7EDF82C
:1048100000BF00BF00BF012240212046FEF7E5F89F
:1048200000BF00BF00BF7806070E002240212046CF
:10483000FEF7DBF800BF00BF00BF761E16F0FF06D4
:10484000DDD10826012240212046FEF7CEF800BF28
:1048500000BF00BF6806070E10212046FEF7C0F813
:1048600040EA0705002240212046FEF7BEF800BFBF
:1048700000BF00BF761E16F0FF06E3D101224021E3
:104880002046FEF7B2F800BF00BF00BF0122802122
:104890002046FEF7AAF800BF00BF00BF2846BDE8CB
:1048A000F0810000000C014008210148FEF7C2BE63
:1048B0000801002030B140F2DC51012807D0022865
:1048C00005D102E04FF47A7101E04FF4FA61024839
:1048D0000068C16370470000080100202DE9F04323
:1048E00004464748A5B00D465AB185427ED20846D7
:1048F00003F0F6FF02460B4642A104A8FBF718FDA1
:1049000078E08542494EE0783BD203F08AFC0022F1
:10491000B146334603F016FB06460F46A07803F077
:1049200080FC3B46324603F051FA03F01DFA804604
:10493000607803F076FC00224B4603F003FB074649
:104940000E46207803F06DFC3A46334603F03EFAFB
:1049500003F00AFA0446284603F0C2FF06460F4653
:10496000204603F0BDFF04460D46404603F0B8FF65
:104970008DE8F00002460B462DA104A8FBF7D8FCF9
:1049800038E003F04EFC0022334603F0DBFA074622
:104990000D46A07803F045FC3A462B4603F016FA84
:1049A00003F0E2F90746607803F03BFC002233464F
:1049B00003F0C8FA06460D46207803F032FC324672
:1049C0002B4603F003FA03F0CFF903F089FF044606
:1049D0000D46384603F084FF02460B461EA104A88C
:1049E000CDE90045FBF7A4FC04E0FFE724A104A8FF
:1049F000FBF79EFC04A800F081F825B0BDE8F08329
:104A0000000080807B2274656D70223A6E756C6C3C
:104A10002C2268756D69223A6E756C6C2C2241519E
:104A200049223A252E30667D0D0A00000000244000
:104A30007B2274656D70223A252E31662C226875B2
:104A40006D69223A252E31662C22415149223A25A0
:104A50002E30667D0D0A00007B2274656D70223A4F
:104A6000252E31662C2268756D69223A252E316615
:104A70002C22415149223A6E756C6C7D0D0A000062
:104A80007B2274656D70223A6E756C6C2C22687591
:104A90006D69223A6E756C6C2C22415149223A6E36
:104AA000756C6C7D0D0A000070470FB400B599B0AD
:104AB0001BAA68461A99FBF729FC684600F01EF805
:104AC00019B05DF814FB000010B501460023012267
:104AD0000348FEF773FE08B1002010BD012010BD91
:104AE0005001002001B54FF0FF3301226946024812
:104AF000FEF7BCFE08BD00005001002070B5054661
:104B0000002403E0FFF7EEFF641CA4B2285D002838
:104B1000F8D170BD70B50C460546FFF755FE40EA6A
:104B200004012846BDE8704000F082BB10B5044A7D
:104B30000021044800F0ACFD0349086010BD0000EE
:104B400038960008CD4C0008C400002041F288349B
:104B5000204600F0DDFCFBE788B04FF4FA684FF424
:104B6000FA7000F0D5FC424D424C434E05F1080767
:104B70004FF0FF3A04F1350902A95220FFF77EF801
:104B8000262828D02878002823D000F0CEFC696899
:104B9000401A40451DD9002028705146306800F069
:104BA000F9FCB0B9012135A20846FFF7FBFC37A29A
:104BB00001210220FFF7F6FC34A201210320FFF7B8
:104BC000F1FC32A201210420FFF7ECFC306800F078
:104BD0003EFD642049E02748FEF7C4FF262842D165
:104BE00000F0A3FC6860012028700020395C225C82
:104BF000914216D00020215C3954401CC0B20428D8
:104C0000F9D3E178A078CDE900016378227824A176
:104C10004846FBF78DFB5146306800F0BBFC28B1DD
:104C20001DE0401CC0B20428E0D31CE0FFF772FB7B
:104C3000012120A20846FFF7B5FC4A4601210220C7
:104C4000FFF7B0FC11A201210320FFF7ABFC0FA27C
:104C500001210420FFF7A6FC306800F0F8FC49466B
:104C600015A0FFF722FF4FF4967000F051FC83E788
:104C7000A8000020B42E00200000002020202045A5
:104C80004E56204D4F4E2020200000002020202096
:104C90002020202020202020202020200000000094
:104CA0002530325825303258253032582530325888
:104CB0000000000049443A007B2263617264696429
:104CC000223A222573227D0D0A00000098B00022AE
:104CD0000A21274801F0E0FE1690002845D025A0C3
:104CE000FFF70CFF29A12BA0CDE900012AA32CA2DC
:104CF000502102A8FBF732FB02A8FFF7FFFE2DA010
:104D0000FFF7FCFE00201A4C179014E000EBC000E7
:104D100004EB8000018C02698900CDE90021436821
:104D20002AA2502102A8FBF719FB02A8FFF7E6FE12
:104D30001798401C17901699884201D20A28E5D38B
:104D400002F088F9014626A0FFF7AFFE02F088F9CD
:104D5000014629A0FFF7A9FE2EA000BFFFF7CEFE57
:104D60004CF2503000F0D4FBB1E72FA0F6E7000082
:104D7000F42E00200D0A3D3D205461736B205374C6
:104D800061636B203D3D0D0A0000000046726565C1
:104D900000000000507269005461736B0000000055
:104DA000252D31307320252D337320252D35730D9E
:104DB0000A0000002D2D2D2D2D2D2D2D2D2D2D2DCD
:104DC0002D2D2D2D2D2D0D0A00000000252D31300B
:104DD0007320252D336C7520252D356C750D0A003B
:104DE0004672656520686561703A20257520627994
:104DF0007465730D0A0000004D696E696D756D2054
:104E000068656170206D656D6F72793A2025640A5E
:104E1000000000003D3D3D3D3D3D3D3D3D3D3D3DB6
:104E20003D3D3D0D0A0D0A005461736B20737461A2
:104E3000746520657272210D0A00000010B54FF0F4
:104E4000E020006902F06AFD012803D0BDE81040AF
:104E500002F060B910BD30B593B028216846FBF769
:104E6000D4FC14210AA8FBF7D0FC002501200F95E3
:104E700010951195010412958DE8230004904FF4CC
:104E8000E010CDE90810022407946846FEF740F8C8
:104E900008B172B6FEE70AA90F2081E831004FF48D
:104EA0008060CDE90D0502210AA8FDF735FF08B1A4
:104EB00072B6FEE74FF4404011900F940FA8FDF733
:104EC000B5FE002801D072B6FEE713B030BD7047C2
:104ED0000148FEF73EBA000098010020F0B50268D4
:104EE000194B1A4C1A4D4FF08047984205D0B842E2
:104EF00003D0A04201D0A84203D122F070064A6834
:104F00003243984205D0B84203D0A04201D0A84213
:104F100003D122F44074CA6822434C6922F0800213
:104F2000224302608A68C2620A688262984201D1A2
:104F300009690163012141610169C90703D0016960
:104F400021F001010161F0BD002C0140000400408E
:104F50000008004010B501F01F030121046A9940C8
:104F60008C430462016A9A401143016210BD000043
:104F700030B5036A026A22F0010202624268846963
:104F800024F073050C682C4323F002058B682B4337
:104F90000A4DA8420BD123F00805CB6822F44072D9
:104FA0002B434D6923F0040315438A692A43426069
:104FB000846149684163036230BD0000002C0140F8
:104FC00030B5026A036A23F0100303624368846900
:104FD0000D6824F4E64444EA05248D6822F020029A
:104FE00042EA05120B4DA8420ED1CD6822F0800294
:104FF00042EA05124D6923F4406343EA85038D6953
:1050000022F0400243EA850343608461496881637A
:10501000026230BD002C014030B5036A026A22F4FE
:10502000807202624268C46923F4007324F073053D
:105030000C682C438D6843EA05230C4DA8420ED121
:10504000CD6823F4006343EA05234D6922F44052FE
:1050500042EA05128D6923F4806342EA0512426038
:10506000C4614968C163036230BD0000002C014087
:1050700030B5046A026A22F4805202624268C3694F
:105080000D6823F4E64343EA05238D6824F40054B5
:1050900044EA0534064DA84204D14D6922F4804209
:1050A00042EA85124260C36149680164046230BD0E
:1050B000002C014001680C3151E8002F22F490725D
:1050C00041E80023002BF5D10168143151E8002F8D
:1050D00022F0010241E80023002BF5D1016B0129E8
:1050E00009D101680C3151E8002F22F0100241E88B
:1050F0000023002BF5D1202180F84210002101630C
:105100007047000070B5044600680169E26821F448
:105110004051114301612169A06808436169084356
:105120002168CA6841F20C639A430243CA6020684E
:105130004169A26921F44071114341611E4920680F
:10514000884202D1FDF7AEFE01E0FDF79BFE00EBC9
:10515000C00101EB0012606864218000B2FBF0F333
:10516000B3FBF1F36FF018067343B2FBF0F5B2FB3B
:10517000F0F605EB8305322303EB0515B5FBF1F5DE
:10518000B6FBF1F605F0F00505EB0615B2FBF0F6FF
:10519000B2FBF0F0B0FBF1F06FF01802504306EBF9
:1051A000800003EB0010B0FBF1F0216800F00F006D
:1051B0002844886070BD0000003801402DE9F843A4
:1051C000984617460D460446089E24E0701C22D0DF
:1051D000FDF710FCA0EB0800B0421AD8CEB1206851
:1051E000C168490717D5802D15D0402D13D001680F
:1051F000C94309070FD40168002540680090204684
:10520000FFF758FF0820606484F840500120BDE893
:10521000F8830320FBE72068006835EA000004D02B
:105220000020B842D2D00020F1E70120F9E7FEE7E4
:105230002DE9F041334C0E46054600224021204620
:10524000FDF7D3FB002280212046FDF7CEFB7E2018
:1052500000EA45070825380601D5012200E00022B2
:1052600020212046FDF7C1FB00BF00BF00BF012287
:1052700040212046FDF7B9FB00BF00BF00BF780604
:10528000070E002240212046FDF7AFFB00BF00BF04
:1052900000BF6D1E15F0FF05DDD10825300601D5D4
:1052A000012200E0002220212046FDF79EFB00BFE6
:1052B00000BF00BF012240212046FDF796FB00BF42
:1052C00000BF00BF7006060E002240212046FDF7F9
:1052D0008CFB00BF00BF00BF6D1E15F0FF05DDD1C8
:1052E000012240212046FDF780FB00BF00BF00BF28
:1052F000012280212046FDF778FB00BF00BF00BFE0
:10530000BDE8F081000C0140490050EAC12018BFFF
:1053100004204A0D18BF40F0010040F2FF72B2EBCA
:10532000515F08BF40F00200012808BF0520704708
:105330000907090E002804DB00F1E02080F80014C2
:10534000704700F00F0000F1E02080F8141D704756
:105350002DE9F0414F1E00EBC7010446D1E90001E1
:1053600015461E4637F006020DD02A46334602F097
:10537000A7FF7F1E04EBC703D3E9002302F026FD3D
:1053800037F00602F1D1022F25D0042F13D0062FBB
:1053900018BFBDE8F0812A46334602F091FFD4E9F8
:1053A0000A2302F013FD2A46334602F089FFD4E9AE
:1053B000082302F00BFD2A46334602F081FFD4E9B0
:1053C000062302F003FD2A46334602F079FFD4E9B2
:1053D000042302F0FBFC2A46334602F071FFD4E9B5
:1053E000022302F0F3FC2A46334602F069FFD4E9B7
:1053F0000023BDE8F04102F0E9BC000000221346A2
:105400001046014902F09EBD0000F03F02F0DEBCF4
:10541000002213461046114602F094BD40F20132BC
:1054200000204FF0E04103F03CBD0000024A0020A4
:10543000110703F036BD000001FDFFFF30380A28D8
:1054400001D2012070470020704700002DE9F04193
:10545000040006D0184E306884420AD10020BDE80E
:10546000F081502080F31188BFF34F8FBFF36F8F0F
:10547000FEE701F0AFFB6569776BB66B01F0CAFB25
:10548000BD4201D0B54201D10220E8E70B48854278
:1054900008D1A06A0028F7D194F858000128F3D069
:1054A0000320DCE705481438854202D00DB1012005
:1054B000D5E70420D3E700001C000020D006002020
:1054C00008B5FDF7A5FAFFF7C6FC0F48816941F062
:1054D00001018161806900F0010000900B48416882
:1054E00021F0E06141F000714160FEF74FFEFEF7F0
:1054F000F3FEFEF7DDFDFEF7B7FE00F01DF8FEF748
:10550000FFFD00F02BF8FEE7001002400000014014
:1055100010B5EFF3058111B16FF0050403E000242D
:1055200008B101F02FFC204610BDEFF3058008B153
:1055300002F008BA02F000BAEFF3058010B16FF084
:10554000050070470448016811B14FF0FF30704703
:1055500001210160002070476C00002010B5EFF3BE
:10556000058010B16FF0050010BD084801680129E1
:1055700002D04FF0FF3010BD054A002182F8141D03
:105580000221016001F0E8FC002010BD6C00002049
:105590000BE000E02DE9F0410D46014621F001004D
:1055A00001F001014FF00004EFF305820AB1A41FDE
:1055B00016E048B100296FF001066FF00207294696
:1055C00008D002F0F3F807E06FF0030408E035B10B
:1055D000344605E002F02EF80128F8D100E03C4600
:1055E0002046BDE8F08170B505464FF00004EFF3AA
:1055F000058050BB0DB1686800E00020C10701D0F4
:10560000012600E0002600071FD46DB1D5E9021085
:1056100021B1502819D31EB1042002E020B114E0BA
:10562000012001F098FD05E00EB1042000E001200A
:1056300001F086FD040008D00DB1296800E00021CA
:1056400001F06AFB0EB144F00104204670BD70B554
:10565000014621F0010001F001014FF00004EFF3D9
:1056600005820AB1A41F11E028B16FF0020529B12B
:1056700001F025FF07E06FF0030407E000231A465E
:10568000194601F00DFE012800D02C46204670BDC1
:105690002DE9FF414FEA01034FF00005EFF30581CB
:1056A000039549BB40B38027182100244AB31668EC
:1056B00006B1344696691EB13146761E382E02D2A6
:1056C0001679F60703D0002004B0BDE8F0815669D2
:1056D00006B1B708D2F808C0BCF1000F0DD0D568EC
:1056E0005C2D18D312693AB136B18DE806103A46EE
:1056F000214602F0E2F803900DE0D6685EB9126927
:105700004AB903AACDE90012BAB2214602F0A8F8BC
:10571000012800D003950398D6E700002DE9F04D4D
:105720001D460C4698B0174621F0004123F0004377
:10573000002814BF4FF0010C4FF0000C0CEB440C90
:10574000FE4A0CEB02064FEA620C66452BD33E0084
:1057500018BF012606EB45061644F94A964222D3A5
:10576000F84A53EA070C02D0944205D148B918B060
:1057700000201146BDE8F08D002808BF4FF0000C56
:1057800001D04FF0010C0CEB440212F5001F0AD8B7
:10579000002F14BF4FF0010C4FF0000C0CEB450232
:1057A00012F5001F07D918B03A462B462146BDE82E
:1057B000F04DFFF72BBE0022DFF88CA3002CB8BF02
:1057C000534526DADFF884C36345A8BF022220DAF6
:1057D000DFF870C39C451CDCDFF874C30CEB235C62
:1057E000BCF1140F08DDCCF1340627FA06FC0CFAE4
:1057F00006F6BE420DD108E05FB9CCF1140623FADB
:1058000006FC0CFA06F69E4203D10CF00102C2F12E
:10581000020251EA000C19D1002D17DA002C18BF32
:10582000022A01D0012A07D00220FBF71DF818B088
:10583000BDE8F04DFFF7E2BD0220FBF715F8FFF7DA
:10584000DDFD18B081F00041BDE8F08DB7F1000C2E
:105850006CD1534525D104F1804212F5801201BF6D
:1058600000280020B74918B008BFBDE8F08DB54842
:10587000884207DC002DA1BF6046294618B0BDE86C
:10588000F08D07E0281E05DA80F0004118B0604670
:10589000BDE8F08DAF497944D1E9000118B0BDE809
:1058A000F08DDFF8A0C2634525D1002D1FDA19B1B4
:1058B000514512D1D8B909E0002840F0EC82A24A43
:1058C000214618B062F31E01BDE8F08D002021468C
:1058D00018B060F31E01BDE8F08D08DA18B0234659
:1058E000BDE8F04D02460020614602F02BBB18B027
:1058F0002146BDE8F08D514518DAB5F1804F0DD045
:10590000A5F1005CBCF1FF5C10D1B4F1000C0DDB23
:1059100018B06146BDE8F04D01F084B8234618B0D8
:105920000246BDE8F04D194602F0CABC060024F05C
:10593000004C3BD1D9B1514533D1002C06DD002DAF
:10594000A1BF0020514618B0BDE8F08D002C01DD4C
:10595000002D1BDB002C13DA002D11DB012A4FF088
:10596000000014BF78497C4918B0BDE8F08D022AC8
:1059700018BF002C0AD0012A08D1002C06DA0AE050
:10598000002CB8BF002D11DA012A04D0002018B075
:105990000146BDE8F08D18B000204FF00041BDE891
:1059A000F08DA1F14050B0F17F601AD0012000EBE2
:1059B000E47050EA020421D0624C521E4FF0000BFA
:1059C000104304BF4FF0000B644C654883427CDDFC
:1059D000644A654893421FDD884217DB002D25DBB2
:1059E00037E0002C00DA4AB1022A0CBF01204FF048
:1059F000FF3018B0BDE8F04D02F0FCBB0120FAF713
:105A000033FF18B0BDE8F04DFFF702BD4D4A8A42A2
:105A100002DC002D0ADC1CE0814202DA002D18DADB
:105A200004E0484B994220DD002D12DD0220FAF7F8
:105A30001BFFFFF7F3FC05460E460022534658466F
:105A4000214602F03DFC18B066F31E012846BDE871
:105A5000F08D0220FAF708FFFFF7E8FC0A4621461E
:105A600018B062F31E01BDE8F08D00223046614699
:105A700002F04CFE80460E466FF0010203F011FA70
:105A80004FF05532394B02F04FFD4246334602F09B
:105A900017FC0022364B02F047FD82464246334651
:105AA00004911046194602F00BFC5246049B02F08A
:105AB00007FC8A4600904FF0C0422E4B40463146CC
:105AC00002F0FEFB2C4A2B4B00E027E0CDE906015B
:105AD0005146009802F0F4FB82460191274A284B78
